:100000000C9464000C94D1040C94F8040C948C00AF
:100010000C948C000C948C000C948C000C948C0030
:100020000C948C000C948C000C948C000C94BC02EE
:100030000C948C000C948C000C948C000C948C0010
:100040000C941F050C948C000C94D3070C94050899
:100050000C948C000C948C000C948C000C948C00F0
:100060000C948C000C948C0000000008000201002D
:100070000003040700000000000000000102040863
:100080001020408001020408102001020408102002
:10009000040404040404040402020202020203032E
:1000A00003030303000000002300260029000000D2
:1000B0000000250028002B0000000000240027007D
:1000C0002A00E8003508FC0011241FBECFEFD8E05D
:1000D000DEBFCDBF11E0A0E0B1E0EAEAF1E202C08C
:1000E00005900D92AA39B107D9F722E0AAE9B1E04B
:1000F00001C01D92A53AB207E1F710E0C6ECD0E0CE
:1001000004C02297FE010E94410EC23CD107C9F7EC
:100110000E94810B0C94C8100C94000080910C017B
:100120000E9465069093A9018093A8012091AA01DD
:100130003091AB01232B89F4019779F480910A0166
:100140000E946506892B91F48091AC019091AD01DC
:1001500001979093AD018093AC018091A80190919B
:10016000A9019093AB018093AA0108958091AC01FD
:100170009091AD010196EDCF6AE070E089EB91E0DE
:100180000E94120469E070E086EB91E00E94120484
:1001900026E040E855E260E070E084E092E00E94F2
:1001A00071076BE171E084E092E00E94B60860E0C4
:1001B00080910C010E94F60560E080910A010E9486
:1001C000F60541E050E06EE870E081E00C94B10487
:1001D00061E271E08CEC91E00E94200B61E271E041
:1001E00086EC91E00E94200B89EB91E00E9478035D
:1001F00086EB91E00C94780386EC91E00E94B20AC1
:100200008CEC91E00C94B20AAF92BF92CF92DF9245
:10021000EF92FF920F931F93CF93DF9300D000D004
:10022000CDB7DEB784E092E00E948E06181619065C
:1002300034F484E092E00E94A7068093D401609198
:10024000D401613239F481E090E09093D30180933E
:10025000D20183C12091D2013091D3018091140148
:10026000909115016C3259F52F5F3F4F3093D301B8
:100270002093D201880F991F2817390741F48CEC7D
:1002800091E00E94750B7093C5016093C401809149
:10029000140190911501880F991F01962091D201A8
:1002A0003091D3012817390709F057C186EC91E046
:1002B0000E94750B7093C3016093C2014EC1880FF9
:1002C000991F01972817390721F48CEC91E00E94BF
:1002D000620B8091140190911501880F991F209154
:1002E000D2013091D3012817390731F46091D4013C
:1002F00086EC91E00E94620B809112010E94B00591
:100300009093C1018093C001BC01882777FD80953F
:10031000982F1F921F9221E02F9328E62F93A12C54
:10032000B12C65011AECE12E13E0F12E00E010E093
:1003300028E230E040E050E00E946B0A0E94940CFA
:100340009B01AC016093BC017093BD018093BE0121
:100350009093BF016091100170911101882777FD82
:100360008095982F29833A834B835C830E94940C59
:1003700029813A814B815C810E94900B0E94610C23
:100380009B0177FF04C022273327261B370B0F90D2
:100390000F900F900F90253B310514F06856714077
:1003A0007093B5016093B4016EE570E08091B40183
:1003B0009091B501681B790B89EB91E00E944B0489
:1003C0000E9469056093A0017093A1018093A2012E
:1003D0009093A301C090A401D090A501E090A60144
:1003E000F090A7019B01AC012C193D094E095F0952
:1003F00069017A0163E271E084E092E00E94B6084C
:100400006091AC017091AD014AE050E084E092E06F
:100410000E94660984E092E00E94BF0835E6C31698
:10042000D104E104F1040CF47CC06EE371E084E0DB
:1004300092E00E94B6082AE030E0B701A60184E00D
:1004400092E00E941C0984E092E00E94BF08809123
:10045000AC019091AD0120919E0130919F01821BD2
:10046000930B9093B1018093B00167E571E084E054
:1004700092E00E94B6086091B0017091B1014AE02B
:1004800050E084E092E00E94660984E092E00E94DD
:10049000BF0880910E0190910F012091B001309121
:1004A000B101821B930B9093B3018093B2016BEF68
:1004B0007FEF0E94CB0D8091AE019091AF01680F4C
:1004C000791F7093AF016093AE0186EB91E00E94BB
:1004D0004B046CE671E084E092E00E94B608609103
:1004E000AE017091AF014AE050E084E092E00E94DA
:1004F00066098091A0019091A101A091A201B09103
:10050000A3018093A4019093A501A093A601B093A9
:10051000A7018091AC019091AD0190939F018093D0
:100520009E0140919A0150919B0160919C017091B4
:100530009D0122E030E084E092E00F900F900F9058
:100540000F90DF91CF911F910F91FF90EF90DF906F
:10055000CF90BF90AF900C94590A0F900F900F90CE
:100560000F90DF91CF911F910F91FF90EF90DF904F
:10057000CF90BF90AF9008951F920F920FB60F9239
:1005800011242F933F934F935F936F937F938F9398
:100590009F93AF93BF93EF93FF938091D60187FF13
:1005A00005C010928500109284001AC02091D601D7
:1005B000332727FD30958091D50190E02817390722
:1005C0007CF48091D601992787FD9095FC01EE0F70
:1005D000FF1FE80FF91FE952FE4F808186FD15C00D
:1005E0008091D6018F5F8093D6012091D601332769
:1005F00027FD30958091D50190E028173907BCF48C
:100600008091D6018C305CF112C08091D60199277F
:1006100087FD9095FC01EE0FFF1FE80FF91FE952CF
:10062000FE4F808160E08F730E942F06D9CF8091AA
:10063000840090918500049680349C4918F480E4ED
:100640009CE905C080918400909185000496909368
:100650008900809388008FEF8093D60138C0209165
:100660008400309185008091D601992787FD90956F
:10067000FC01EE0FFF1FE80FF91FE952FE4F8181C9
:100680009281820F931F90938900809388008091BC
:10069000D601992787FD9095FC01EE0FFF1FE80F0B
:1006A000F91FE952FE4F808186FF11C08091D6016B
:1006B000992787FD9095FC01EE0FFF1FE80FF91FAA
:1006C000E952FE4F808161E08F730E942F06FF91F7
:1006D000EF91BF91AF919F918F917F916F915F91BA
:1006E0004F913F912F910F900FBE0F901F90189533
:1006F0002091D5012C30A0F431E0320F3093D50198
:10070000FC012083822F90E0FC01EE0FFF1FE80F19
:10071000F91FE952FE4F88EB9BE092838183089595
:100720002FEFFC0120830895DF92EF92FF920F9349
:100730001F93CF93DF93EC01D62E7A018901888134
:100740008C3008F066C061E08D2D0E94F60588812E
:10075000A82FB0E0FD01EE0FFF1FEA0FFB1FE952CB
:10076000FE4F2D2D2F739081907C922B908360E211
:1007700072E06E197F0977FF02C06D5F7F4F75953C
:10078000679575956795698340E659E0401B510B65
:1007900057FF02C04D5F5F4F55954795559547955B
:1007A0004A836CE00E94BF0D9CE0899FB001112438
:1007B00020E030E0A901460F571FFA01EE0FFF1F9E
:1007C000E40FF51FE952FE4F908196FD16C02F5F92
:1007D0003F4F2C30310571F781110FC0109280000E
:1007E00082E0809381001092850010928400B19A7B
:1007F00080916F00826080936F00888190E0FC019F
:10080000EE0FFF1FE80FF91FE952FE4F8081806451
:1008100080838881DF91CF911F910F91FF90EF909E
:10082000DF90089520E639E040E252E00C94940312
:10083000FC0180818C3070F5918128E830E0291B23
:10084000310997FD3395220F331F220F331F621793
:1008500073077CF0928128E532E0291B310997FD6E
:100860003395220F331F220F331F621773070CF4C7
:100870009B0122503109220F331F4FB7F89490E0AB
:10088000FC01EE0FFF1FE80FF91FE952FE4F328304
:1008900021834FBF08954F925F926F927F92AF92E4
:1008A000BF92CF92DF92EF92FF920F931F93CF935D
:1008B000DF93EC01603282E078070CF040C077FDF6
:1008C00006C0653B71052CF064EB70E002C060E08F
:1008D00070E0898128E830E0281B310987FD3395D5
:1008E000220F331F220F331F5901CC24B7FCC094B1
:1008F000DC2C882777FD8095982F2A8148E552E0E7
:10090000421B510927FD5395440F551F440F551F96
:100910002A01662457FC6094762C7F926F925F9236
:100920004F9214EBE12EF12C00E010E020E030E0DB
:10093000A9010E946B0A0F900F900F900F90CE01AB
:10094000DF91CF911F910F91FF90EF90DF90CF90AB
:10095000BF90AF907F906F905F904F900C94180471
:1009600008958230E8F4E82FF0E0EE0FFF1FEA5E12
:10097000FE4F71836083813041F0809169008C7FEC
:10098000842B80936900E89A089580916900440F50
:10099000551F440F551F837F842B80936900E99A6C
:1009A00008951F920F920FB60F9211242F933F9329
:1009B0004F935F936F937F938F939F93AF93BF9367
:1009C000EF93FF93E0911601F09117010995FF91C4
:1009D000EF91BF91AF919F918F917F916F915F91B7
:1009E0004F913F912F910F900FBE0F901F90189530
:1009F0001F920F920FB60F9211242F933F934F9394
:100A00005F936F937F938F939F93AF93BF93EF9376
:100A1000FF93E0911801F09119010995FF91EF9171
:100A2000BF91AF919F918F917F916F915F914F9106
:100A30003F912F910F900FBE0F901F9018951F920E
:100A40000F920FB60F9211242F933F938F939F9382
:100A5000AF93BF938091FC019091FD01A091FE01A5
:100A6000B091FF013091FB0123E0230F2D3720F4DB
:100A70000196A11DB11D05C026E8230F0296A11DF8
:100A8000B11D2093FB018093FC019093FD01A09385
:100A9000FE01B093FF018091000290910102A091AC
:100AA0000202B09103020196A11DB11D80930002C4
:100AB00090930102A0930202B0930302BF91AF9101
:100AC0009F918F913F912F910F900FBE0F901F908C
:100AD00018952FB7F8946091FC017091FD018091F9
:100AE000FE019091FF012FBF0895789484B5826034
:100AF00084BD84B5816084BD85B5826085BD85B5C2
:100B0000816085BDEEE6F0E0808181608083E1E870
:100B1000F0E01082808182608083808181608083A8
:100B2000E0E8F0E0808181608083E1EBF0E08081AB
:100B300084608083E0EBF0E0808181608083EAE77D
:100B4000F0E0808184608083808182608083808106
:100B5000816080838081806880831092C1000895C5
:100B60008E3008F08E50877020911A0190E4299FF2
:100B700090011124822B80937C0080917A00806404
:100B800080937A0080917A0086FDFCCF8091780076
:100B90002091790090E0922B0895833081F028F421
:100BA000813099F08230A1F008958730A9F0883023
:100BB000B9F08430D1F4809180008F7D03C08091A2
:100BC00080008F7780938000089584B58F7702C06E
:100BD00084B58F7D84BD08958091B0008F7703C068
:100BE0008091B0008F7D8093B0000895CF93DF9304
:100BF00090E0FC01E458FF4F2491FC01E057FF4FC7
:100C00008491882349F190E0880F991FFC01E854F2
:100C1000FF4FA591B49182559F4FFC01C591D4918E
:100C20009FB7611108C0F8948C91209582238C9312
:100C3000888182230AC0623051F4F8948C91322F5B
:100C4000309583238C938881822B888304C0F89409
:100C50008C91822B8C939FBFDF91CF9108950F933E
:100C60001F93CF93DF931F92CDB7DEB7282F30E0CD
:100C7000F901E859FF4F8491F901E458FF4F1491AD
:100C8000F901E057FF4F04910023C9F0882321F0B8
:100C900069830E94CD056981E02FF0E0EE0FFF1F10
:100CA000E255FF4FA591B4919FB7F8948C916111D3
:100CB00003C01095812301C0812B8C939FBF0F909F
:100CC000DF91CF911F910F910895CF93DF93282F3C
:100CD00030E0F901E859FF4F8491F901E458FF4FE2
:100CE000D491F901E057FF4FC491CC2391F08111C9
:100CF0000E94CD05EC2FF0E0EE0FFF1FEC55FF4FEB
:100D0000A591B4912C912D2381E090E021F480E015
:100D100002C080E090E0DF91CF910895FC01818DC9
:100D2000228D90E0805C9F4F821B91098F739927E1
:100D30000895FC01918D828D981731F0828DE80F16
:100D4000F11D858D90E008958FEF9FEF0895FC01D0
:100D5000918D828D981761F0828DDF01A80FB11DF2
:100D60005D968C91928D9F5F9F73928F90E0089516
:100D70008FEF9FEF08958BE298E0892B49F080E098
:100D800090E0892B29F00E942B0881110C9400001F
:100D90000895FC01848DDF01A80FB11DA35ABF4F38
:100DA0002C91848D90E001968F739927848FA6896A
:100DB000B7892C93A089B1898C9180648C93938D91
:100DC000848D981306C00288F389E02D80818F7D81
:100DD00080830895CF93DF93EC01888D8823C9F039
:100DE000EA89FB89808185FD05C0A889B9898C9134
:100DF00086FD0FC00FB607FCF5CF808185FFF2CFCF
:100E0000A889B9898C9185FFEDCFCE010E94C906D2
:100E1000E7CFDF91CF910895CF92DF92FF920F93AA
:100E20001F93CF93DF931F92CDB7DEB76C0181E0A4
:100E3000D60158968C9358975B969C915B975C96DD
:100E40008C915C97981307C05096ED91FC91519747
:100E5000808185FD2EC0F601038D10E00F5F1F4FCE
:100E60000F731127F02EF601848DF81211C00FB602
:100E700007FCF9CFD6015096ED91FC9151978081F6
:100E800085FFF1CFC60169830E94C9066981EBCF56
:100E9000838DE80FF11DE35AFF4F6083D6015B9607
:100EA0000C935B975296ED91FC91539780818062F1
:100EB0000CC0D6015696ED91FC91579760835096E1
:100EC000ED91FC91519780818064808381E090E076
:100ED0000F90DF91CF911F910F91FF90DF90CF90F6
:100EE0000895BF92CF92DF92EF92FF92CF93DF935C
:100EF000EC016A017B01B22EE889F98982E08083E6
:100F0000411581EE580761057105A1F060E079E0B7
:100F10008DE390E0A70196010E94DF0D2150310979
:100F2000410951095695479537952795211580E137
:100F3000380798F0E889F989108260E874E88EE152
:100F400090E0A70196010E94DF0D2150310941096F
:100F500051095695479537952795EC85FD85308342
:100F6000EE85FF852083188EEC89FD89B082EA89A1
:100F7000FB89808180618083EA89FB898081886028
:100F80008083EA89FB89808180688083EA89FB8984
:100F900080818F7D8083DF91CF91FF90EF90DF90F4
:100FA000CF90BF9008951F920F920FB60F92112409
:100FB0002F938F939F93EF93FF93E0911402F091FF
:100FC00015028081E0911A02F0911B0282FD12C08D
:100FD000908180911D028F5F8F7320911E02821776
:100FE00051F0E0911D02F0E0EC5FFD4F958F809392
:100FF0001D0201C08081FF91EF919F918F912F91F0
:101000000F900FBE0F901F9018951F920F920FB662
:101010000F9211242F933F934F935F936F937F937E
:101020008F939F93AF93BF93EF93FF9384E092E0EE
:101030000E94C906FF91EF91BF91AF919F918F914F
:101040007F916F915F914F913F912F910F900FBEC4
:101050000F901F90189584E092E00E948E0621E088
:10106000892B09F420E0822F089510920702109234
:10107000060288EE93E0A0E0B0E08093080290932F
:101080000902A0930A02B0930B028DE791E09093BE
:1010900005028093040285EC90E090931102809306
:1010A000100284EC90E0909313028093120280EC83
:1010B00090E0909315028093140281EC90E090935D
:1010C00017028093160282EC90E0909319028093AD
:1010D000180286EC90E090931B0280931A02109203
:1010E0001D0210921E0210921F02109220020895FB
:1010F000CF92DF92EF92FF920F931F93CF93DF93E4
:101100007C016A01EB0100E010E00C151D0571F097
:101110006991D701ED91FC910190F081E02DC7011B
:101120000995892B19F00F5F1F4FEFCFC801DF9191
:10113000CF911F910F91FF90EF90DF90CF90089586
:101140006115710581F0DB010D900020E9F7AD011B
:1011500041505109461B570BDC01ED91FC91028077
:10116000F381E02D099480E090E008950C94A008AC
:10117000DC01ED91FC910190F081E02D099469E88A
:1011800071E00C94A0088F929F92AF92BF92CF9281
:10119000DF92EF92FF920F931F93CF93DF93CDB720
:1011A000DEB7A1970FB6F894DEBF0FBECDBF7C01AE
:1011B000C42EE52FCB01D22E19A221E02D1510F05F
:1011C0002AE0D22E8E010F5D1F4F8D2C912CA12C69
:1011D000B12C6C2D7E2FA50194010E94DF0D8C2D6A
:1011E000D29E80191124015011098A3014F4805DB7
:1011F00001C0895CF8018083211531054105510545
:1012000021F0C22EE32FCA01E4CFB801C7010E942A
:10121000A008A1960FB6F894DEBF0FBECDBFDF9138
:10122000CF911F910F91FF90EF90DF90CF90BF90E3
:10123000AF909F908F900895CF92DF92EF92FF92A0
:101240000F931F93CF93DF93EC016A017B0121156C
:10125000310579F4E881F9810190F081E02D642F66
:10126000DF91CF911F910F91FF90EF90DF90CF9082
:1012700009942A303105E9F477FF1AC06DE20E9423
:10128000B8088C0144275527BA014C195D096E092D
:101290007F092AE0CE010E94C308800F911FDF91D1
:1012A000CF911F910F91FF90EF90DF90CF90089515
:1012B0002AE0B701A601CE01DF91CF911F910F91D6
:1012C000FF90EF90DF90CF900C94C3089A01AB0190
:1012D000662757FD6095762F0C941C094F925F92FC
:1012E0006F927F928F929F92AF92BF92CF92DF9236
:1012F000EF92FF920F931F93CF93DF93EC016A015C
:101300007B01B22E9A01AB01C701B6010E94AB0D61
:10131000882319F06CE871E027C026013701E894B2
:1013200077F82FEF3FEF4FE75FE7C301B2010E946D
:10133000AB0D81110DC02FEF3FEF4FE75FE7C3010A
:10134000B2010E94F50B18161CF460E971E00CC0A4
:101350002FEF3FEF4FE75FE4C701B6010E94440D56
:101360001816ACF464E971E0CE01DF91CF911F91C2
:101370000F91FF90EF90DF90CF90BF90AF909F9034
:101380008F907F906F905F904F900C94A0082FEFFC
:101390003FEF4FE75FECC701B6010E94F50B87FDF9
:1013A000E1CF20E030E0A901C701B6010E94F50BB2
:1013B00087FF0AC06DE2CE010E94B8088C01F7FADF
:1013C000F094F7F8F09402C000E010E0A12C60E087
:1013D00070E080E09FE3AB1441F020E030E040E2B9
:1013E00051E40E94F90BA394F6CF9B01AC01C70115
:1013F000B6010E94910B6B017C010E94660C2B01CF
:101400003C010E94920C9B01AC01C701B6010E94F5
:10141000900B6B017C012AE0B301A201CE010E9476
:10142000C308080F191FBB2039F068E971E0CE012D
:101430000E94A008080F191F7B2C772041F120E0A3
:1014400030E040E251E4C701B6010E94480D6B0153
:101450007C010E94610C4B01AA2497FCA094BA2C39
:101460002AE030E0B501A401CE010E941C09080F5A
:10147000191FC501B4010E94940C9B01AC01C70166
:10148000B6010E94900B6B017C017A94D6CFC80103
:10149000DF91CF911F910F91FF90EF90DF90CF9050
:1014A000BF90AF909F908F907F906F905F904F9084
:1014B00008950F931F93CF93DF93EC010E946E0961
:1014C0008C01CE010E94BF08800F911FDF91CF9148
:1014D0001F910F9108954F925F926F927F92AF92FA
:1014E000BF92CF92DF92EF92FF920F931F93CF9311
:1014F000DF93CDB7DEB729013A01621B730B840B72
:10150000950B29893A894B895C892A193B094C0931
:101510005D09298B3A8B4B8B5C8B9B01AC016989F4
:101520007A898B899C890E94AF0DE418F508060919
:101530001709A80197010E94010E2A0D3B1D4C1DA1
:101540005D1DCA01B901DF91CF911F910F91FF90ED
:10155000EF90DF90CF90BF90AF907F906F905F90B3
:101560004F900895FC01808191810C94EC0ECF93F3
:10157000DF93EC0188819981009711F00E94EC0EB5
:10158000198218821D821C821B821A82DF91CF91E0
:1015900008950F931F93CF93DF93EC018B016F5F3F
:1015A0007F4F888199810E947B0F009731F099834A
:1015B00088831B830A8381E001C080E0DF91CF91A3
:1015C0001F910F910895CF93DF93EC01888199814A
:1015D000892B29F08A819B818617970760F4CE01B9
:1015E0000E94C90A882341F08C819D81892B19F4BE
:1015F000E881F981108281E0DF91CF910895EF9227
:10160000FF920F931F93CF93DF93EC017B018A012D
:10161000BA010E94E30A811104C0CE010E94B70AF8
:1016200007C01D830C83B701888199810E947510C2
:10163000CE01DF91CF911F910F91FF90EF90089510
:10164000FC011182108213821282158214826115AC
:10165000710559F0FB0101900020E9F7AF014150FD
:101660005109461B570B0C94FF0A0895EF92FF9205
:101670000F931F93CF93DF93EC017B010C811D81AE
:101680006115710511F480E016C04115510591F006
:10169000040F151FB8010E94E30A8823A1F32881D3
:1016A00039818C819D81B701820F931F0E94751033
:1016B0001D830C8381E0DF91CF911F910F91FF90EB
:1016C000EF900895CF93DF9300D0CDB7DEB7698355
:1016D0001A8241E050E0BE016F5F7F4F0E94360BDF
:1016E0000F900F90DF91CF910895FC01808191813F
:1016F000009711F00C94451060E070E0CB01089564
:1017000008950E9475050E94800B0E94BC00CBEBDF
:10171000D6E00E9404012097E1F30E94BB06F9CFB6
:101720005058BB27AA270ED075C166D130F06BD1B7
:1017300020F031F49F3F11F41EF45BC10EF4E095EC
:10174000E7FB51C1E92F77D180F3BA17620773071E
:101750008407950718F071F49EF58FC10EF4E0959B
:101760000B2EBA2FA02D0B01B90190010C01CA015B
:10177000A0011124FF27591B99F0593F50F4503E06
:1017800068F11A16F040A22F232F342F4427585FF8
:10179000F3CF469537952795A795F0405395C9F710
:1017A0007EF41F16BA0B620B730B840BBAF09150C8
:1017B000A1F0FF0FBB1F661F771F881FC2F70EC067
:1017C000BA0F621F731F841F48F48795779567953A
:1017D000B795F7959E3F08F0B3CF9395880F08F023
:1017E0009927EE0F979587950895D9D008F481E051
:1017F00008950CD00FC107D140F0FED030F021F495
:101800005F3F19F0F0C0511139C1F3C014D198F302
:101810009923C9F35523B1F3951B550BBB27AA2771
:1018200062177307840738F09F5F5F4F220F331FE3
:10183000441FAA1FA9F333D00E2E3AF0E0E830D0AF
:1018400091505040E695001CCAF729D0FE2F27D0B2
:10185000660F771F881FBB1F261737074807AB0780
:10186000B0E809F0BB0B802DBF01FF2793585F4FF5
:101870002AF09E3F510568F0B6C000C15F3FECF30F
:10188000983EDCF3869577956795B795F7959F5FBA
:10189000C9F7880F911D9695879597F90895E1E00E
:1018A000660F771F881FBB1F621773078407BA076D
:1018B00020F0621B730B840BBA0BEE1F88F7E095C8
:1018C000089504D06894B111D9C00895BCD088F0AF
:1018D0009F5790F0B92F9927B751A0F0D1F0660F1C
:1018E000771F881F991F1AF0BA95C9F712C0B13037
:1018F00081F0C3D0B1E00895C0C0672F782F88274A
:10190000B85F39F0B93FCCF3869577956795B39575
:10191000D9F73EF490958095709561957F4F8F4FE4
:101920009F4F0895E89409C097FB3EF490958095E9
:10193000709561957F4F8F4F9F4F9923A9F0F92F95
:1019400096E9BB279395F695879577956795B79513
:10195000F111F8CFFAF4BB0F11F460FF1BC06F5FF9
:101960007F4F8F4F9F4F16C0882311F096E911C00B
:10197000772321F09EE8872F762F05C0662371F02C
:1019800096E8862F70E060E02AF09A95660F771F40
:10199000881FDAF7880F9695879597F90895990F1C
:1019A0000008550FAA0BE0E8FEEF16161706E80729
:1019B000F907C0F012161306E407F50798F0621B4A
:1019C000730B840B950B39F40A2661F0232B242B1F
:1019D000252B21F408950A2609F4A140A6958FEF3E
:1019E000811D811D089597F99F6780E870E060E090
:1019F00008959FEF80EC089500240A9416161706A8
:101A000018060906089500240A94121613061406EF
:101A100005060895092E0394000C11F4882352F052
:101A2000BB0F40F4BF2B11F460FF04C06F5F7F4F0A
:101A30008F4F9F4F089557FD9058440F551F59F0F1
:101A40005F3F71F04795880F97FB991F61F09F3FAB
:101A500079F087950895121613061406551FF2CFD4
:101A60004695F1DF08C0161617061806991FF1CF24
:101A700086957105610508940895E894BB2766274B
:101A80007727CB0197F908958ADF08F48FEF08953F
:101A90000BD0C0CFB1DF28F0B6DF18F0952309F0E6
:101AA000A2CFA7CF1124EACFC6DFA0F3959FD1F331
:101AB000950F50E0551F629FF001729FBB27F00DFC
:101AC000B11D639FAA27F00DB11DAA1F649F662751
:101AD000B00DA11D661F829F2227B00DA11D621FA0
:101AE000739FB00DA11D621F839FA00D611D221F5A
:101AF000749F3327A00D611D231F849F600D211D3E
:101B0000822F762F6A2F11249F5750408AF0E1F0E0
:101B100088234AF0EE0FFF1FBB1F661F771F881F29
:101B200091505040A9F79E3F510570F05CCFA6CF71
:101B30005F3FECF3983EDCF3869577956795B79514
:101B4000F795E7959F5FC1F7FE2B880F911D96953E
:101B5000879597F9089523DF880B990B0895DB018A
:101B60008F939F930E94200EBF91AF91A29F800DF3
:101B7000911DA39F900DB29F900D11240895991B64
:101B800079E004C0991F961708F0961B881F7A9574
:101B9000C9F78095089597FB072E16F4009407D097
:101BA00077FD09D00E942B0E07FC05D03EF49095DE
:101BB00081959F4F0895709561957F4F0895A1E29B
:101BC0001A2EAA1BBB1BFD010DC0AA1FBB1FEE1FB7
:101BD000FF1FA217B307E407F50720F0A21BB30B02
:101BE000E40BF50B661F771F881F991F1A9469F77E
:101BF00060957095809590959B01AC01BD01CF01DA
:101C00000895052E97FB1EF400940E94180E57FDB0
:101C100007D00E94DF0D07FC03D04EF40C94180E81
:101C200050954095309521953F4F4F4F5F4F089508
:101C300090958095709561957F4F8F4F9F4F089538
:101C40000E94450EA59F900DB49F900DA49F800DFE
:101C5000911D11240895AA1BBB1B51E107C0AA1FA7
:101C6000BB1FA617B70710F0A61BB70B881F991F3D
:101C70005A95A9F780959095BC01CD010895EE0F76
:101C8000FF1F0590F491E02D0994A29FB001B39F2E
:101C9000C001A39F700D811D1124911DB29F700D75
:101CA000811D1124911D0895CF93DF9382309105FA
:101CB00010F482E090E0E091A302F091A40220E011
:101CC00030E0A0E0B0E0309739F140815181481711
:101CD0005907B8F04817590771F48281938110971A
:101CE00029F013969C938E9312972CC09093A40284
:101CF0008093A30227C02115310531F04217530705
:101D000018F0A901DB0101C0EF019A01BD01DF015B
:101D10000280F381E02DD7CF21153105F9F0281B82
:101D2000390B2430310580F48A819B81611571055E
:101D300021F0FB019383828304C09093A4028093DB
:101D4000A302FE01329644C0FE01E20FF31F81930D
:101D5000919322503109398328833AC02091A102FE
:101D60003091A202232B41F4209102013091030112
:101D70003093A2022093A102209100013091010131
:101D80002115310541F42DB73EB740910401509122
:101D90000501241B350BE091A102F091A202E2178C
:101DA000F307A0F42E1B3F0B2817390778F0AC017E
:101DB0004E5F5F4F2417350748F04E0F5F1F50935B
:101DC000A2024093A1028193919302C0E0E0F0E06F
:101DD000CF01DF91CF910895CF93DF93009709F45E
:101DE00087C0FC01329713821282C091A302D09166
:101DF000A402209781F420813181280F391F80911E
:101E0000A1029091A2028217930779F5F093A202A2
:101E1000E093A1026DC0DE0120E030E0AE17BF0705
:101E200050F412964D915C9113979D014115510507
:101E300009F1DA01F3CFB383A28340815181840F8A
:101E4000951F8A179B0771F48D919C911197840FB0
:101E5000951F02969183808312968D919C91139782
:101E6000938382832115310529F4F093A402E09332
:101E7000A3023EC0D9011396FC93EE9312974D91A5
:101E80005D91A40FB51FEA17FB0779F4808191815A
:101E9000840F951F0296D90111969C938E9382818F
:101EA000938113969C938E931297E0E0F0E08A81E1
:101EB0009B81009719F0FE01EC01F9CFCE0102964B
:101EC00028813981820F931F2091A1023091A202B3
:101ED0002817390769F4309729F41092A402109258
:101EE000A30202C013821282D093A202C093A10265
:101EF000DF91CF910895A0E0B0E0E1E8FFE00C941D
:101F00009510EC01CB01209719F40E94540EB8C033
:101F1000FE01E60FF71F9E0122503109E217F30779
:101F200008F4ACC0D9010D911C9111970617170741
:101F3000B8F00530110508F49FC0A80144505109BC
:101F40004617570708F498C002501109061B170BD3
:101F5000019311936D937C93CF010E94EC0E8CC082
:101F60005B01A01AB10A4E01800E911EA091A3023E
:101F7000B091A402612C712C60E070E0109709F41C
:101F800049C0A815B905C9F5ED90FC9011976701F6
:101F900042E0C40ED11CCA14DB0478F147018A1850
:101FA0009B08640142E0C40ED11C1296BC901297AB
:101FB0001396AC91B5E0CB16D10440F0B282A38366
:101FC00091828082D9018D939C9309C00E5F1F4F2F
:101FD0000E0D1F1DF90111830083EB2DFA2F6115E2
:101FE000710531F0DB011396FC93EE93129744C018
:101FF000F093A402E093A3023FC06D917C911197EE
:102000006616770608F43B01BD0112960D90BC914F
:10201000A02DB4CF6091A1027091A202681579053C
:10202000E9F468167906D0F440910001509101015D
:102030004115510541F44DB75EB7609104017091AF
:102040000501461B570BE417F507C0F4F093A202F5
:10205000E093A102F901918380830EC00E94540E87
:102060007C01009759F0A801BE010E946C10CE01BE
:102070000E94EC0EC70104C0CE0102C080E090E0D7
:10208000CDB7DEB7EEE00C94B1101F93FC01992799
:102090008827BC01E89411911032E9F3193010F04F
:1020A0001E30C8F31B3251F01D3249F4689406C04B
:1020B0000E947C10610F711D811D911D11911053A3
:1020C0001A30B0F33EF490958095709561957F4FEE
:1020D0008F4F9F4F1F910895FB01DC0102C00190BB
:1020E0000D9241505040D8F70895FB01DC0101905A
:1020F0000D920020E1F70895592F482F372F262FF2
:10210000660F771F881F991F660F771F881F991FFB
:10211000620F731F841F951F660F771F881F991FFB
:1021200008952F923F924F925F926F927F928F927B
:102130009F92AF92BF92CF92DF92EF92FF920F9356
:102140001F93CF93DF93CDB7DEB7CA1BDB0B0FB660
:10215000F894DEBF0FBECDBF09942A88398848881D
:102160005F846E847D848C849B84AA84B984C884B3
:10217000DF80EE80FD800C811B81AA81B981CE0FAA
:10218000D11D0FB6F894DEBF0FBECDBFED0108958F
:1021900010E0C6ECD0E004C0FE010E94410E229681
:0A21A000C83CD107C9F7F894FFCF3F
:1021AA000000A502800001000000020003000A00EE
:1021BA007A0002000100B004B0040174657374214E
:1021CA0000300043757272656E7420656E636F64C9
:1021DA0065722072656164696E67213A20006D69D3
:1021EA006C6C697365636F6E642064696666657298
:1021FA00656E63653A20004368616E676520696EA3
:10220A0020706F736974696F6E3A20007370656528
:10221A0064506F7765723A2000000000000C07785E
:10222A00088E06A7069906EA060D0A006E616E0078
:0A223A00696E66006F7666002E00E4
:00000001FF
